:020000040000FA
:060000000A128A110C280F
:10000800FE00030EF0000A08F1000A128A15202FDC
:100018000A128A110F280A128A11FC270A128A1159
:10002800C0000A128A11FB270A128A11FB00B401C8
:10003800B501B601B701B801B901BA01BB01BC01EC
:10004800BD01BE01BF01F901FA0183010A128A113B
:10005800322B83120313AD0031302A06031D3528D5
:1000680036283A28B401B501AD01B6015030F60082
:100078008030F7000A128A1541260A128A11D930EF
:10008800F600C030F7000A128A1541260A128A11B2
:100098001230F600D030F7000A128A1541260A12EB
:1000A8008A11013083120313B80706303806031D7E
:1000B8005E285F286828B80137080319642866286D
:1000C800013067280030B7005030F6008030F70064
:1000D8000A128A1541260A128A11D930F600C03050
:1000E800F7000A128A1541260A128A111230F60000
:1000F800D030F7000A128A1541260A128A112A30CE
:10010800831203132D0603198A288B28B628233057
:100118002D06031990289128B6282D0A0319952829
:100128009628B6280130B6070530360203189D28F0
:100138009E286D293508F3003408F2000A30F400CF
:100148000030F5000A128A158B260A128A118312CA
:1001580003132D087207B400003003180130730729
:10016800B5006D292A302D06031DBB28BC28C028E0
:10017800B401B501B6016D2923302D06031DC5282C
:10018800C6286D2900303502B53003193402031C26
:10019800CE28CF28D328B430B4000030B5000A12D6
:1001A8008A15E5250A128A113C3083120313BD0013
:1001B80012157830F6008330F7000A128A154126A6
:1001C8000A128A119030F600C030F7000A128A1518
:1001D80041260A128A119C3083120313A800733037
:1001E8000A128A1509260A128A115C299930A80070
:1001F8006430F2000030F3003D08AB00AC012B087E
:10020800F4002C08F5000A128A113D240A128A11FA
:100218007208303E0A128A1509260A128A119A3083
:1002280083120313A8000A30A4000030A5000A3086
:10023800F2000030F3003D08AB00AC012B08F400DD
:100248002C08F5000A128A113D240A128A11730833
:1002580083120313A7007208A6000A128A11A224A7
:100268000A128A11831203132408303E0A128A15CF
:1002780009260A128A119B3083120313A8000A3038
:10028800A4000030A5003D08AB00AC012B08A60077
:100298002C08A7000A128A11A2240A128A118312B2
:1002A80003132408303E0A128A1509260A128A11F5
:1002B800831203133D08031D62296329FA280A12D1
:1002C8008A15E5250A128A11831203131211303098
:1002D800C00037080319712972298F29C730A8006F
:1002E80020300A128A1509260A128A11C830831288
:1002F8000313A80020300A128A1509260A128A1147
:10030800C93083120313A80020300A128A1509265F
:100318000A128A11E829C730A8006430F2000030B8
:10032800F3003508F5003408F4000A128A155B2733
:100338000A128A117208303E0A128A1509260A1210
:100348008A11C83083120313A8000A30A0000030B5
:10035800A1000A30F2000030F3003508F500340837
:10036800F4000A128A155B270A128A11730883128D
:100378000313A3007208A2000A128A15E6260A12BD
:100388008A11831203132008303E0A128A1509269F
:100398000A128A11C93083120313A8000A30A00078
:1003A8000030A1003508A3003408A2000A128A15FB
:1003B800E6260A128A11831203132008303E0A1215
:1003C8008A1509260A128A11080083120313AD0040
:1003D80031302A06031DF129F229F729BF01BE0190
:1003E800AD01B901BC010130F6008030F7000A12F6
:1003F8008A1541260A128A11D330F600C030F70058
:100408000A128A1541260A128A11C7308312031369
:10041800A8003A300A128A1509260A128A111230DF
:10042800F600D030F7000A128A1541260A128A11FE
:100438002A30831203132D060319232A242A5A2A41
:1004480023302D060319292A2A2A5A2A2D0A031984
:100458002E2A2F2A5A2A0130B907043039020318E4
:10046800362A372A452A0A30F2003F080A128A1526
:10047800F6250A128A11831203132D07BF00BC0147
:10048800822A0630390203184A2A4B2A822A0A305D
:10049800F2003E080A128A15F6250A128A118312FA
:1004A80003132D07BE000130BC00822A2A302D0616
:1004B800031D5F2A602A712A3C08031D642A652AE5
:1004C800682ABF01B901822A3C03031D6C2A6D2AE0
:1004D800822ABE010230B900822A23302D06031D6C
:1004E800762A772A822A0A128A15E5250A128A119B
:1004F80083120313071512157030C0000130BB07B3
:100508000B303B06031D892A8A2A932ABB013A0825
:1005180003198F2A912A0130922A0030BA003A082A
:100528000319972A982AC32A3C08031D9C2A9D2A46
:10053800B02AC830A80020300A128A1509260A12E3
:100548008A11C93083120313A80020300A128A15B1
:1005580009260A128A11312BC530A80020300A1248
:100568008A1509260A128A11C63083120313A800B5
:1005780020300A128A1509260A128A11312BC8302E
:10058800A8000A30F2000030F3003F08AB00AC01CD
:100598002B08F4002C08F5000A128A113D240A12CF
:1005A8008A117208303E0A128A1509260A128A111F
:1005B800C93083120313A8000A30A4000030A50034
:1005C8003F08AB00AC012B08A6002C08A7000A12B4
:1005D8008A11A2240A128A11831203132408303EB6
:1005E8000A128A1509260A128A11C53083120313C2
:1005F800A8000A30F2000030F3003E08AB00AC015E
:100608002B08F4002C08F5000A128A113D240A125E
:100618008A117208303E0A128A1509260A128A11AE
:10062800C63083120313A8000A30A4000030A500C6
:100638003E08AB00AC012B08A6002C08A7000A1244
:100648008A11A2240A128A11831203132408303E45
:100658000A128A1509260A128A1108000A128A1132
:10066800E6270A128A1101300A128A151E260A1272
:100678008A1183120313B30020304006031D452B53
:10068800462B972B3303031D4A2B4B2B732B3030F0
:10069800C0000A128A15E5250A128A118430F6006C
:1006A800C230F7000A128A1541260A128A114D3003
:1006B80083120313B1001930B0004F30AF00AF0BF5
:1006C800632BB00B632BB10B632B0A128A15E5253C
:1006D8000A128A11313083120313B200972B0230A9
:1006E8003306031D782B792B832B4030C000313023
:1006F800B2000A128A15E5250A128A11972B0330CF
:100708003306031D882B892B8E2B5030C0003130C7
:10071800B2007D2B04303306031D932B942B972BAB
:100728006030C0007D2B7030831203134006031D18
:100738009E2B9F2BC52B04303306031DA42BA52B02
:10074800B32B3F081E3EBF003C303F02031CAD2BBD
:10075800AE2BB32B0130BE073F08C43EBF000530A7
:100768003306031DB82BB92BBC2B8030C000182CC6
:1007780006303306031DC12BC22B182C9030C00045
:10078800182C80304006031DCA2BCB2B182C0430A4
:100798003306031DD02BD12B182C121507157030DA
:1007A800C000182C0A128A117C270A128A110A1210
:1007B8008A15E5250A128A11203083120313C00016
:1007C800352C0A128A1566260A128A11352C320827
:1007D800AA0033080A128A11E9210A128A11352C53
:1007E8000A128A11E4250A128A11352C3208AA0045
:1007F80033080A128A11E9210A128A11352C3208A3
:10080800AA0033080A128A112D200A128A11352CDF
:100818000A128A15C0250A128A11352C12110711DD
:10082800352C12110711DB2B4008103A0319D62B6F
:10083800303A0319E52B103A0319EB2B703A0319D8
:10084800FA2B103A0319032C303A03190C2C103ADE
:100858000319F42BF03A0319122C103A0319152C2A
:10086800352CFF3083120313B200372B0A128A117A
:100878000C2883120313A101F31F432C442C4B2C87
:10088800F209F309F20A0319F30A0130A100F51F6E
:100898004E2C4F2C562CF409F509F40A0319F50AC5
:1008A8000130A106A201A3017208730403195D2C8B
:1008B8005E2C932C0130A0006A2C01300310F20D3D
:1008C800F30DFF3E031D622C0130A007F31F6D2CB2
:1008D8006E2C612C01300310A20DA30DFF3E031DE9
:1008E8006F2C73087502031D7B2C72087402031C9D
:1008F8007E2C7F2C862C7208F4027308031CF503E7
:10090800F502221401300310F30CF20CFF3E031D14
:10091800872C0130A002031D922C932C6E2C2108E9
:100928000319972C982C9D2CA209A309A20A031934
:10093800A30A2308F3002208F2000800F701831233
:100948000313A71FA82CA92CB02CA609A709A60A2F
:100958000319A70A0130F700A51FB32CB42CB92C32
:10096800A409A509A40A0319A50A2408250403193A
:10097800BE2CBF2CEC2C0130F600CB2C0130031020
:10098800A40DA50DFF3E031DC32C0130F607A51FBE
:10099800CE2CCF2CC22C25082702031DD52C2408C9
:1009A8002602031CD82CD92CDF2C2408A6022508E3
:1009B800031CA703A70201300310A50CA40CFF3EDB
:1009C800031DE02C0130F602031DEB2CEC2CCF2C80
:1009D80077080319F02CF12CF62CA609A709A60A0A
:0E09E8000319A70A2708A5002608A400080086
:100A000005308A000408840A8207003453344534D0
:100A100054342034543449344D344534203428344B
:100A20004D344D343A3453345334293400342A3459
:100A30003A3443344C344534413452342034233432
:100A40003A3445344E345434453452340034453409
:100A50006E346A346F347934203479346F347534B9
:100A6000723420346D34653461346C340034343481
:100A70002E34533454344134523454342F34523499
:100A80004534533455344D34453400344D344934B1
:100A9000433452344F34573441345634453420347F
:100AA0004F34563445344E34003453344534543482
:100AB0002034543445344D345034203428342A34CE
:100AC00043342934003433342E34203443344F3407
:100AD0004E34563445344334543449344F344E3410
:100AE000003450344F3457344534523449344E3442
:100AF000473420344F344E3400345034723465342B
:100B00002D34483465346134743469346E34673458
:100B1000003470346F3477346534723420343D34AB
:100B200039343034303457340034543469346D340B
:100B300065342034523465346D343A340034323400
:100B40002E3420344734523449344C344C3400343D
:100B500031342E3420344D344934433452344F34FC
:100B6000003434342E342034533454344134523429
:100B70005434003435342E345034413455345334E5
:100B800045340034543449344D34453420345534DC
:100B900050340034543449344D34453420343D34D9
:100BA000003436342E34533454344F3450340034FB
:100BB000543449344D3445343A3400345434453493
:100BC0004D3450343A340034C530F6008130F700EB
:100BD0000A128A1541260A128A11893083120313D8
:100BE000A8000A30F2000030F3003E08AA00AB0172
:100BF0002A08F4002B08F5000A128A113D240A1273
:100C00008A117208303E0A128A1509260A128A11C0
:100C10008A3083120313A8000A30A4000030A50014
:100C20003E08AA00AB012A08A6002B08A7000A125A
:100C30008A11A2240A128A11831203132408303E57
:100C40000A128A1509260A128A118C30831203139C
:100C5000A8000A30F2000030F3003F08AA00AB0100
:100C60002A08F4002B08F5000A128A113D240A1202
:100C70008A117208303E0A128A1509260A128A1150
:100C80008D3083120313A8000A30A4000030A500A1
:100C90003F08AA00AB012A08A6002B08A7000A12E9
:100CA0008A11A2240A128A11831203132408303EE7
:100CB0000A128A1509260A128A118B30831203132D
:100CC000A8003A300A128A1509260A128A1132300F
:100CD000F600C230F7000A128A1541260A128A115C
:100CE000B530F6009230F7000A128A1541260A1232
:100CF0008A11CC30F600D230F7000A128A1541264C
:100D00000A128A11831203133E08031D882E892EAE
:100D1000C02E3F08031D8D2E8E2EC02E0A128A155E
:100D2000E5250A128A118312031312110711BD302F
:100D3000F600C430F7000A128A1541260A128A11F9
:100D40002230F6009030F7000A128A1541260A1266
:100D50008A11333083120313AC00BB30AB00DF3099
:100D6000AA00AA0BB12EAB0BB12EAC0BB12E0A12FE
:100D70008A15E5250A128A11203083120313C00058
:100D800008008312031388110815881408146430AE
:100D9000F2000030F300FF30F2070318F30AFF30CF
:100DA000F307720A031DD82E730A031DD82ED92EFD
:100DB000CB2E831203130618DE2EDF2EE12E013018
:100DC0007B2F8618E42EE52EE72E02307B2F0619A6
:100DD000EA2EEB2EED2E03307B2F88150811881498
:100DE00008146430F2000030F300FF30F2070318FB
:100DF000F30AFF30F3077308803AFF0080307F0268
:100E0000031D042F013072020318072F082FF52E3F
:100E10008312031306180D2F0E2F102F04307B2F73
:100E20008618132F142F162F05307B2F0619192F14
:100E30001A2F1C2F06307B2F8815081588100814D0
:100E40006430F2000030F300FF30F2070318F30AB9
:100E5000FF30F3077308803AFF0080307F02031DE4
:100E6000332F013072020318362F372F242F8312AD
:100E7000031306183C2F3D2F3F2F07307B2F86187A
:100E8000422F432F452F08307B2F0619482F492F1B
:100E90004B2F09307B2F88150815881408106430F3
:100EA000F2000030F300FF30F2070318F30AFF30BE
:100EB000F3077308803AFF0080307F02031D622F22
:100EC000013072020318652F662F532F831203130C
:100ED00006186B2F6C2F6E2F2A307B2F8618712FE0
:100EE000722F742F00307B2F0619772F782F7A2FCF
:100EF00023307B2FFF30080083120313AD012D0830
:100F0000803EA800FF300A128A1509260A128A11AB
:100F1000033083120313AC008A30AB005530AA00B3
:100F2000AA0B902FAB0B902FAC0B902F013083129C
:100F30000313AD0710302D02031C9F2FA02F7F2F0E
:100F40006C30F600C330F7000A128A1541260A12E7
:100F50008A114130F6009230F7000A128A154126B4
:100F60000A128A1183120313AE012E08D03EA80084
:100F7000FF300A128A1509260A128A1103308312D9
:100F80000313AC008A30AB005530AA00AA0BC62F61
:100F9000AB0BC62FAC0BC62F013083120313AE0769
:100FA00010302E02031CD52FD62FB52F1A308312E6
:100FB0000313AC005E30AB006D30AA00AA0BDE2F2D
:100FC000AB0BDE2FAC0BDE2FE52F08000A128A15C3
:100FD000CA250A128A110A128A15D5250A128A11FF
:100FE0000A128A15B7250A128A11831603130711EC
:0A0FF0000B178B17080001341034B2
:101B6E00FA308316031392008C148312031312118E
:101B7E0008001E3083120313BF00BE011215071595
:101B8E007030C000080083160313880109118910F4
:101B9E000A128A159D270A128A1508008316031346
:101BAE000608073886000808F0398800811383126A
:101BBE00031388150815881408140800F201013063
:101BCE000A128A15B0260A128A150430F7003D3023
:101BDE00F600F60BF02DF70BF02DF52D0800F400A6
:101BEE00F301741CFB2DFC2DFE2D7208F307031060
:101BFE00F20D0310F40C7408031D062E072EF82D9B
:101C0E007308080083120313A900F20128080A12B0
:101C1E008A15B0260A128A15F201F20A83120313EC
:101C2E0029080A128A15B0260A128A150800F4002D
:101C3E000A128A11C1260A128A15F5007408031DAC
:101C4E00292E2A2E2C2E7508402E750A0319302E99
:101C5E00312E382E7B080319352E362E382EFB01E9
:101C6E002A2E750A031D3C2E3D2E3F2E0130FB0001
:101C7E00FF300800F20177080A128A15B0260A1200
:101C8E008A15592EF201F20A760884000A128A1178
:101C9E0000250A128A150A128A15B0260A128A150A
:101CAE000130F607760884000A128A1100250A12FE
:101CBE008A15003A031D642E652E492E0800A330A6
:101CCE00F6008330F7000A128A1541260A128A1589
:101CDE009A30F600C330F7000A128A1541260A120E
:101CEE008A155E30F6009330F7000A128A154126E7
:101CFE000A128A15AC30F600D330F7000A128A1594
:101D0E0041260A128A150800F601F701721C902E60
:101D1E00912E972E7408F6070318F70A7508F70721
:101D2E0001300310F40DF50DFF3E031D982E01300A
:101D3E000310F30CF20CFF3E031D9F2E720873046A
:101D4E00031DAA2EAB2E8D2E7708F3007608F20017
:101D5E000800F5007218B42EB82E8312031309155D
:101D6E00BB2E8312031309117508F03988008914EC
:101D7E00A630F300F30BC12E00008312031389105B
:101D8E0075080F39F30003300310F30DFF3E031DEA
:101D9E00CB2E0310730D88008914A630F300F30BBD
:101DAE00D62E00008312031389101B30F4009E30D0
:101DBE00F300F30BE02EF40BE02E0000080083126C
:101DCE000313200821040319ED2EEE2E1B2F0130D4
:101DDE00A400FA2E01300310A00DA10DFF3E031D2D
:101DEE00F22E0130A407A11FFD2EFE2EF12E21088A
:101DFE002302031D042F20082202031C072F082F85
:101E0E000E2F2008A2022108031CA303A3020130F7
:101E1E000310A10CA00CFF3E031D0F2F0130A402D6
:101E2E00031D1A2F1B2FFE2E2308A1002208A0002F
:101E3E000800831203138C1C252F262F542F0130DC
:101E4E00F9070318FA0A0030FA07203079064E30E7
:101E5E0003197A06031D342F352F532FF901FA017A
:101E6E003F0803193B2F3C2F3E2F0130BF023F0886
:101E7E00031D422F432F4C2F3E080319472F482F87
:101E8E004C2F0130BE023C30BF003D080319502FCD
:101E9E00512F532F0130BD028C1071088A00700E25
:101EAE008300FE0E7E0E0900F601F7017208730420
:101EBE000319622F632F982F0130F8006F2F013016
:101ECE000310F20DF30DFF3E031D672F0130F807CF
:101EDE00F31F722F732F662F01300310F60DF70DBF
:101EEE00FF3E031D742F73087502031D802F7208A9
:101EFE007402031C832F842F8B2F7208F402730835
:101F0E00031CF503F502761401300310F30CF20CEA
:101F1E00FF3E031D8C2F0130F802031D972F982FC3
:101F2E00732F7708F3007608F2000800C330F7002D
:101F3E00CD30F600F60BA12FF70BA12FF2013330A7
:101F4E000A128A15B0260A128A151B30F7009E3027
:101F5E00F600F60BB02FF70BB02F0000F201333066
:101F6E000A128A15B0260A128A15A630F600F60B4A
:101F7E00BE2F0000F20133300A128A15B0260A1263
:101F8E008A15C92FCA2F0000F20102300A128A15D3
:101F9E00B0260A128A15A630F600F60BD42F0000D2
:101FAE00F20128300A128A15B0260A128A15A630B6
:101FBE00F600F60BE02F0000F20101300A128A152E
:101FCE00B0260A128A150430F7003D30F600F60BE3
:101FDE00EE2FF70BEE2FF32FF2010C300A128A15AB
:101FEE00B0260A128A15A630F600F60BFC2F00005A
:021FFE000800D9
:02400E00FB3F76
:00000001FF
